{
  "contractName": "AxonToken",
  "abi": [
    {
      "constant": true,
      "inputs": [],
      "name": "name",
      "outputs": [
        {
          "name": "",
          "type": "string"
        }
      ],
      "payable": false,
      "stateMutability": "view",
      "type": "function"
    },
    {
      "constant": false,
      "inputs": [
        {
          "name": "spender",
          "type": "address"
        },
        {
          "name": "value",
          "type": "uint256"
        }
      ],
      "name": "approve",
      "outputs": [
        {
          "name": "",
          "type": "bool"
        }
      ],
      "payable": false,
      "stateMutability": "nonpayable",
      "type": "function"
    },
    {
      "constant": false,
      "inputs": [
        {
          "name": "account",
          "type": "address"
        }
      ],
      "name": "addWhitelisted",
      "outputs": [],
      "payable": false,
      "stateMutability": "nonpayable",
      "type": "function"
    },
    {
      "constant": true,
      "inputs": [],
      "name": "totalSupply",
      "outputs": [
        {
          "name": "",
          "type": "uint256"
        }
      ],
      "payable": false,
      "stateMutability": "view",
      "type": "function"
    },
    {
      "constant": false,
      "inputs": [
        {
          "name": "from",
          "type": "address"
        },
        {
          "name": "to",
          "type": "address"
        },
        {
          "name": "value",
          "type": "uint256"
        }
      ],
      "name": "transferFrom",
      "outputs": [
        {
          "name": "",
          "type": "bool"
        }
      ],
      "payable": false,
      "stateMutability": "nonpayable",
      "type": "function"
    },
    {
      "constant": false,
      "inputs": [
        {
          "name": "account",
          "type": "address"
        }
      ],
      "name": "removeWhitelisted",
      "outputs": [],
      "payable": false,
      "stateMutability": "nonpayable",
      "type": "function"
    },
    {
      "constant": true,
      "inputs": [],
      "name": "decimals",
      "outputs": [
        {
          "name": "",
          "type": "uint8"
        }
      ],
      "payable": false,
      "stateMutability": "view",
      "type": "function"
    },
    {
      "constant": true,
      "inputs": [],
      "name": "cap",
      "outputs": [
        {
          "name": "",
          "type": "uint256"
        }
      ],
      "payable": false,
      "stateMutability": "view",
      "type": "function"
    },
    {
      "constant": false,
      "inputs": [
        {
          "name": "spender",
          "type": "address"
        },
        {
          "name": "addedValue",
          "type": "uint256"
        }
      ],
      "name": "increaseAllowance",
      "outputs": [
        {
          "name": "success",
          "type": "bool"
        }
      ],
      "payable": false,
      "stateMutability": "nonpayable",
      "type": "function"
    },
    {
      "constant": true,
      "inputs": [
        {
          "name": "account",
          "type": "address"
        }
      ],
      "name": "isWhitelisted",
      "outputs": [
        {
          "name": "",
          "type": "bool"
        }
      ],
      "payable": false,
      "stateMutability": "view",
      "type": "function"
    },
    {
      "constant": false,
      "inputs": [],
      "name": "unpause",
      "outputs": [],
      "payable": false,
      "stateMutability": "nonpayable",
      "type": "function"
    },
    {
      "constant": false,
      "inputs": [
        {
          "name": "to",
          "type": "address"
        },
        {
          "name": "value",
          "type": "uint256"
        }
      ],
      "name": "mint",
      "outputs": [
        {
          "name": "",
          "type": "bool"
        }
      ],
      "payable": false,
      "stateMutability": "nonpayable",
      "type": "function"
    },
    {
      "constant": false,
      "inputs": [
        {
          "name": "value",
          "type": "uint256"
        }
      ],
      "name": "burn",
      "outputs": [],
      "payable": false,
      "stateMutability": "nonpayable",
      "type": "function"
    },
    {
      "constant": true,
      "inputs": [
        {
          "name": "account",
          "type": "address"
        }
      ],
      "name": "isPauser",
      "outputs": [
        {
          "name": "",
          "type": "bool"
        }
      ],
      "payable": false,
      "stateMutability": "view",
      "type": "function"
    },
    {
      "constant": false,
      "inputs": [],
      "name": "renounceWhitelistAdmin",
      "outputs": [],
      "payable": false,
      "stateMutability": "nonpayable",
      "type": "function"
    },
    {
      "constant": true,
      "inputs": [],
      "name": "paused",
      "outputs": [
        {
          "name": "",
          "type": "bool"
        }
      ],
      "payable": false,
      "stateMutability": "view",
      "type": "function"
    },
    {
      "constant": false,
      "inputs": [],
      "name": "renouncePauser",
      "outputs": [],
      "payable": false,
      "stateMutability": "nonpayable",
      "type": "function"
    },
    {
      "constant": true,
      "inputs": [
        {
          "name": "owner",
          "type": "address"
        }
      ],
      "name": "balanceOf",
      "outputs": [
        {
          "name": "",
          "type": "uint256"
        }
      ],
      "payable": false,
      "stateMutability": "view",
      "type": "function"
    },
    {
      "constant": false,
      "inputs": [],
      "name": "renounceOwnership",
      "outputs": [],
      "payable": false,
      "stateMutability": "nonpayable",
      "type": "function"
    },
    {
      "constant": false,
      "inputs": [
        {
          "name": "account",
          "type": "address"
        }
      ],
      "name": "addWhitelistAdmin",
      "outputs": [],
      "payable": false,
      "stateMutability": "nonpayable",
      "type": "function"
    },
    {
      "constant": false,
      "inputs": [
        {
          "name": "from",
          "type": "address"
        },
        {
          "name": "value",
          "type": "uint256"
        }
      ],
      "name": "burnFrom",
      "outputs": [],
      "payable": false,
      "stateMutability": "nonpayable",
      "type": "function"
    },
    {
      "constant": false,
      "inputs": [
        {
          "name": "account",
          "type": "address"
        }
      ],
      "name": "addPauser",
      "outputs": [],
      "payable": false,
      "stateMutability": "nonpayable",
      "type": "function"
    },
    {
      "constant": false,
      "inputs": [],
      "name": "pause",
      "outputs": [],
      "payable": false,
      "stateMutability": "nonpayable",
      "type": "function"
    },
    {
      "constant": true,
      "inputs": [],
      "name": "owner",
      "outputs": [
        {
          "name": "",
          "type": "address"
        }
      ],
      "payable": false,
      "stateMutability": "view",
      "type": "function"
    },
    {
      "constant": true,
      "inputs": [],
      "name": "isOwner",
      "outputs": [
        {
          "name": "",
          "type": "bool"
        }
      ],
      "payable": false,
      "stateMutability": "view",
      "type": "function"
    },
    {
      "constant": true,
      "inputs": [],
      "name": "symbol",
      "outputs": [
        {
          "name": "",
          "type": "string"
        }
      ],
      "payable": false,
      "stateMutability": "view",
      "type": "function"
    },
    {
      "constant": false,
      "inputs": [
        {
          "name": "account",
          "type": "address"
        }
      ],
      "name": "addMinter",
      "outputs": [],
      "payable": false,
      "stateMutability": "nonpayable",
      "type": "function"
    },
    {
      "constant": false,
      "inputs": [],
      "name": "renounceMinter",
      "outputs": [],
      "payable": false,
      "stateMutability": "nonpayable",
      "type": "function"
    },
    {
      "constant": false,
      "inputs": [
        {
          "name": "spender",
          "type": "address"
        },
        {
          "name": "subtractedValue",
          "type": "uint256"
        }
      ],
      "name": "decreaseAllowance",
      "outputs": [
        {
          "name": "success",
          "type": "bool"
        }
      ],
      "payable": false,
      "stateMutability": "nonpayable",
      "type": "function"
    },
    {
      "constant": false,
      "inputs": [
        {
          "name": "to",
          "type": "address"
        },
        {
          "name": "value",
          "type": "uint256"
        }
      ],
      "name": "transfer",
      "outputs": [
        {
          "name": "",
          "type": "bool"
        }
      ],
      "payable": false,
      "stateMutability": "nonpayable",
      "type": "function"
    },
    {
      "constant": true,
      "inputs": [
        {
          "name": "account",
          "type": "address"
        }
      ],
      "name": "isMinter",
      "outputs": [
        {
          "name": "",
          "type": "bool"
        }
      ],
      "payable": false,
      "stateMutability": "view",
      "type": "function"
    },
    {
      "constant": true,
      "inputs": [
        {
          "name": "account",
          "type": "address"
        }
      ],
      "name": "isWhitelistAdmin",
      "outputs": [
        {
          "name": "",
          "type": "bool"
        }
      ],
      "payable": false,
      "stateMutability": "view",
      "type": "function"
    },
    {
      "constant": false,
      "inputs": [],
      "name": "renounceWhitelisted",
      "outputs": [],
      "payable": false,
      "stateMutability": "nonpayable",
      "type": "function"
    },
    {
      "constant": true,
      "inputs": [
        {
          "name": "owner",
          "type": "address"
        },
        {
          "name": "spender",
          "type": "address"
        }
      ],
      "name": "allowance",
      "outputs": [
        {
          "name": "",
          "type": "uint256"
        }
      ],
      "payable": false,
      "stateMutability": "view",
      "type": "function"
    },
    {
      "constant": false,
      "inputs": [
        {
          "name": "newOwner",
          "type": "address"
        }
      ],
      "name": "transferOwnership",
      "outputs": [],
      "payable": false,
      "stateMutability": "nonpayable",
      "type": "function"
    },
    {
      "anonymous": false,
      "inputs": [
        {
          "indexed": false,
          "name": "difficulty",
          "type": "uint256"
        },
        {
          "indexed": false,
          "name": "revenue",
          "type": "uint256"
        },
        {
          "indexed": false,
          "name": "alpha",
          "type": "uint256"
        },
        {
          "indexed": false,
          "name": "total_mined",
          "type": "uint256"
        }
      ],
      "name": "LogRevenue",
      "type": "event"
    },
    {
      "anonymous": false,
      "inputs": [
        {
          "indexed": false,
          "name": "difficulty",
          "type": "uint256"
        },
        {
          "indexed": false,
          "name": "revenue",
          "type": "uint256"
        },
        {
          "indexed": false,
          "name": "alpha",
          "type": "uint256"
        },
        {
          "indexed": false,
          "name": "staking_mined",
          "type": "uint256"
        }
      ],
      "name": "LogStaking",
      "type": "event"
    },
    {
      "anonymous": false,
      "inputs": [
        {
          "indexed": true,
          "name": "sender",
          "type": "address"
        },
        {
          "indexed": false,
          "name": "total",
          "type": "uint256"
        }
      ],
      "name": "LogTokenMultiSent",
      "type": "event"
    },
    {
      "anonymous": false,
      "inputs": [
        {
          "indexed": true,
          "name": "sender",
          "type": "address"
        },
        {
          "indexed": true,
          "name": "receiver",
          "type": "address"
        },
        {
          "indexed": false,
          "name": "amount",
          "type": "uint256"
        },
        {
          "indexed": false,
          "name": "result",
          "type": "bool"
        }
      ],
      "name": "LogSendToken",
      "type": "event"
    },
    {
      "anonymous": false,
      "inputs": [
        {
          "indexed": true,
          "name": "account",
          "type": "address"
        }
      ],
      "name": "WhitelistedAdded",
      "type": "event"
    },
    {
      "anonymous": false,
      "inputs": [
        {
          "indexed": true,
          "name": "account",
          "type": "address"
        }
      ],
      "name": "WhitelistedRemoved",
      "type": "event"
    },
    {
      "anonymous": false,
      "inputs": [
        {
          "indexed": true,
          "name": "account",
          "type": "address"
        }
      ],
      "name": "WhitelistAdminAdded",
      "type": "event"
    },
    {
      "anonymous": false,
      "inputs": [
        {
          "indexed": true,
          "name": "account",
          "type": "address"
        }
      ],
      "name": "WhitelistAdminRemoved",
      "type": "event"
    },
    {
      "anonymous": false,
      "inputs": [
        {
          "indexed": true,
          "name": "previousOwner",
          "type": "address"
        },
        {
          "indexed": true,
          "name": "newOwner",
          "type": "address"
        }
      ],
      "name": "OwnershipTransferred",
      "type": "event"
    },
    {
      "anonymous": false,
      "inputs": [
        {
          "indexed": false,
          "name": "account",
          "type": "address"
        }
      ],
      "name": "Paused",
      "type": "event"
    },
    {
      "anonymous": false,
      "inputs": [
        {
          "indexed": false,
          "name": "account",
          "type": "address"
        }
      ],
      "name": "Unpaused",
      "type": "event"
    },
    {
      "anonymous": false,
      "inputs": [
        {
          "indexed": true,
          "name": "account",
          "type": "address"
        }
      ],
      "name": "PauserAdded",
      "type": "event"
    },
    {
      "anonymous": false,
      "inputs": [
        {
          "indexed": true,
          "name": "account",
          "type": "address"
        }
      ],
      "name": "PauserRemoved",
      "type": "event"
    },
    {
      "anonymous": false,
      "inputs": [
        {
          "indexed": true,
          "name": "account",
          "type": "address"
        }
      ],
      "name": "MinterAdded",
      "type": "event"
    },
    {
      "anonymous": false,
      "inputs": [
        {
          "indexed": true,
          "name": "account",
          "type": "address"
        }
      ],
      "name": "MinterRemoved",
      "type": "event"
    },
    {
      "anonymous": false,
      "inputs": [
        {
          "indexed": true,
          "name": "from",
          "type": "address"
        },
        {
          "indexed": true,
          "name": "to",
          "type": "address"
        },
        {
          "indexed": false,
          "name": "value",
          "type": "uint256"
        }
      ],
      "name": "Transfer",
      "type": "event"
    },
    {
      "anonymous": false,
      "inputs": [
        {
          "indexed": true,
          "name": "owner",
          "type": "address"
        },
        {
          "indexed": true,
          "name": "spender",
          "type": "address"
        },
        {
          "indexed": false,
          "name": "value",
          "type": "uint256"
        }
      ],
      "name": "Approval",
      "type": "event"
    },
    {
      "constant": false,
      "inputs": [
        {
          "name": "name",
          "type": "string"
        },
        {
          "name": "symbol",
          "type": "string"
        },
        {
          "name": "decimals",
          "type": "uint8"
        }
      ],
      "name": "initialize",
      "outputs": [],
      "payable": false,
      "stateMutability": "nonpayable",
      "type": "function"
    },
    {
      "constant": false,
      "inputs": [
        {
          "name": "cap",
          "type": "uint256"
        },
        {
          "name": "sender",
          "type": "address"
        }
      ],
      "name": "initialize",
      "outputs": [],
      "payable": false,
      "stateMutability": "nonpayable",
      "type": "function"
    },
    {
      "constant": false,
      "inputs": [
        {
          "name": "_name",
          "type": "string"
        },
        {
          "name": "_symbol",
          "type": "string"
        },
        {
          "name": "_decimals",
          "type": "uint8"
        },
        {
          "name": "_cap",
          "type": "uint256"
        },
        {
          "name": "_op_address",
          "type": "address"
        },
        {
          "name": "_foundation_address",
          "type": "address"
        },
        {
          "name": "_team_address",
          "type": "address"
        },
        {
          "name": "_c_address",
          "type": "address"
        },
        {
          "name": "_pool_address",
          "type": "address"
        },
        {
          "name": "_b_address",
          "type": "address"
        },
        {
          "name": "_owner_address",
          "type": "address"
        }
      ],
      "name": "initialize",
      "outputs": [],
      "payable": false,
      "stateMutability": "nonpayable",
      "type": "function"
    },
    {
      "constant": false,
      "inputs": [
        {
          "name": "sender",
          "type": "address"
        }
      ],
      "name": "initialize",
      "outputs": [],
      "payable": false,
      "stateMutability": "nonpayable",
      "type": "function"
    },
    {
      "constant": true,
      "inputs": [],
      "name": "version",
      "outputs": [
        {
          "name": "",
          "type": "string"
        }
      ],
      "payable": false,
      "stateMutability": "pure",
      "type": "function"
    },
    {
      "constant": true,
      "inputs": [],
      "name": "get_revenue",
      "outputs": [
        {
          "name": "",
          "type": "uint256"
        }
      ],
      "payable": false,
      "stateMutability": "view",
      "type": "function"
    },
    {
      "constant": true,
      "inputs": [],
      "name": "get_invest_mined",
      "outputs": [
        {
          "name": "",
          "type": "uint256"
        }
      ],
      "payable": false,
      "stateMutability": "view",
      "type": "function"
    },
    {
      "constant": true,
      "inputs": [],
      "name": "get_address_pool",
      "outputs": [
        {
          "name": "",
          "type": "address[]"
        }
      ],
      "payable": false,
      "stateMutability": "view",
      "type": "function"
    },
    {
      "constant": true,
      "inputs": [],
      "name": "get_setting",
      "outputs": [
        {
          "name": "",
          "type": "uint256[]"
        }
      ],
      "payable": false,
      "stateMutability": "view",
      "type": "function"
    },
    {
      "constant": true,
      "inputs": [],
      "name": "get_difficulty_list",
      "outputs": [
        {
          "name": "",
          "type": "uint256[]"
        }
      ],
      "payable": false,
      "stateMutability": "view",
      "type": "function"
    },
    {
      "constant": true,
      "inputs": [],
      "name": "get_staking_mine_rate",
      "outputs": [
        {
          "name": "",
          "type": "uint256"
        }
      ],
      "payable": false,
      "stateMutability": "view",
      "type": "function"
    },
    {
      "constant": false,
      "inputs": [
        {
          "name": "_rate",
          "type": "uint256"
        }
      ],
      "name": "set_staking_mine_rate",
      "outputs": [
        {
          "name": "",
          "type": "bool"
        }
      ],
      "payable": false,
      "stateMutability": "nonpayable",
      "type": "function"
    },
    {
      "constant": true,
      "inputs": [],
      "name": "get_current_difficulty",
      "outputs": [
        {
          "name": "",
          "type": "uint256"
        }
      ],
      "payable": false,
      "stateMutability": "view",
      "type": "function"
    },
    {
      "constant": false,
      "inputs": [
        {
          "name": "_difficulty",
          "type": "uint256"
        }
      ],
      "name": "set_current_difficulty",
      "outputs": [
        {
          "name": "",
          "type": "bool"
        }
      ],
      "payable": false,
      "stateMutability": "nonpayable",
      "type": "function"
    },
    {
      "constant": false,
      "inputs": [
        {
          "name": "paras",
          "type": "uint256[]"
        }
      ],
      "name": "mine",
      "outputs": [
        {
          "name": "",
          "type": "uint256"
        }
      ],
      "payable": false,
      "stateMutability": "nonpayable",
      "type": "function"
    },
    {
      "constant": false,
      "inputs": [
        {
          "name": "_recipients",
          "type": "address[]"
        },
        {
          "name": "_values",
          "type": "uint256[]"
        }
      ],
      "name": "multisend",
      "outputs": [
        {
          "name": "",
          "type": "uint256"
        }
      ],
      "payable": false,
      "stateMutability": "nonpayable",
      "type": "function"
    }
  ],
  "bytecode": "0x608060405234801561001057600080fd5b506151ed806100206000396000f3fe608060405234801561001057600080fd5b50600436106102f15760003560e01c806370a082311161019d57806398650275116100e9578063bb5f747b116100a2578063d6cd94731161007c578063d6cd9473146113ff578063da35a26f14611409578063dd62ed3e14611457578063f2fde38b146114cf576102f1565b8063bb5f747b14611319578063bf1aeff514611375578063c4d66de8146113bb576102f1565b806398650275146110695780639d0b3cb914611073578063a457c2d714611091578063a9059cbb146110f7578063aa271e1a1461115d578063aad41a41146111b9576102f1565b806382dc1ec4116101565780638f32d59b116101305780638f32d59b14610eb457806391e083c314610ed657806395d89b4114610fa2578063983b2d5614611025576102f1565b806382dc1ec414610e1c5780638456cb5914610e605780638da5cb5b14610e6a576102f1565b806370a0823114610cc4578063715018a614610d1c5780637362d9c814610d2657806374b6b6a114610d6a57806379cc679014610db057806381c8094614610dfe576102f1565b80633f4ba83a1161025c5780634c5a628c116102155780635a044e91116101ef5780635a044e9114610c1b5780635c975abb14610c7a578063619c4abe14610c9c5780636ef8d66d14610cba576102f1565b80634c5a628c14610b2f57806354f79dbc14610b3957806354fd4d5014610b98576102f1565b80633f4ba83a1461078c57806340c10f191461079657806342966c68146107fc578063454e3ac41461082a57806346fbf68e14610a745780634b29600f14610ad0576102f1565b8063291d9549116102ae578063291d954914610626578063313ce5671461066a57806331b834001461068e578063355274ea146106ac57806339509351146106ca5780633af32abf14610730576102f1565b806306fdde03146102f6578063095ea7b31461037957806310154bad146103df5780631624f6c61461042357806318160ddd1461058257806323b872dd146105a0575b600080fd5b6102fe611513565b6040518080602001828103825283818151815260200191508051906020019080838360005b8381101561033e578082015181840152602081019050610323565b50505050905090810190601f16801561036b5780820380516001836020036101000a031916815260200191505b509250505060405180910390f35b6103c56004803603604081101561038f57600080fd5b81019080803573ffffffffffffffffffffffffffffffffffffffff169060200190929190803590602001909291905050506115b6565b604051808215151515815260200191505060405180910390f35b610421600480360360208110156103f557600080fd5b81019080803573ffffffffffffffffffffffffffffffffffffffff1690602001909291905050506115e5565b005b6105806004803603606081101561043957600080fd5b810190808035906020019064010000000081111561045657600080fd5b82018360208201111561046857600080fd5b8035906020019184600183028401116401000000008311171561048a57600080fd5b91908080601f016020809104026020016040519081016040528093929190818152602001838380828437600081840152601f19601f820116905080830192505050505050509192919290803590602001906401000000008111156104ed57600080fd5b8201836020820111156104ff57600080fd5b8035906020019184600183028401116401000000008311171561052157600080fd5b91908080601f016020809104026020016040519081016040528093929190818152602001838380828437600081840152601f19601f820116905080830192505050505050509192919290803560ff169060200190929190505050611603565b005b61058a611751565b6040518082815260200191505060405180910390f35b61060c600480360360608110156105b657600080fd5b81019080803573ffffffffffffffffffffffffffffffffffffffff169060200190929190803573ffffffffffffffffffffffffffffffffffffffff1690602001909291908035906020019092919050505061175b565b604051808215151515815260200191505060405180910390f35b6106686004803603602081101561063c57600080fd5b81019080803573ffffffffffffffffffffffffffffffffffffffff16906020019092919050505061178c565b005b6106726117aa565b604051808260ff1660ff16815260200191505060405180910390f35b6106966117c2565b6040518082815260200191505060405180910390f35b6106b46117e3565b6040518082815260200191505060405180910390f35b610716600480360360408110156106e057600080fd5b81019080803573ffffffffffffffffffffffffffffffffffffffff169060200190929190803590602001909291905050506117ed565b604051808215151515815260200191505060405180910390f35b6107726004803603602081101561074657600080fd5b81019080803573ffffffffffffffffffffffffffffffffffffffff16906020019092919050505061181c565b604051808215151515815260200191505060405180910390f35b61079461183a565b005b6107e2600480360360408110156107ac57600080fd5b81019080803573ffffffffffffffffffffffffffffffffffffffff169060200190929190803590602001909291905050506118e7565b604051808215151515815260200191505060405180910390f35b6108286004803603602081101561081257600080fd5b810190808035906020019092919050505061190f565b005b610a72600480360361016081101561084157600080fd5b810190808035906020019064010000000081111561085e57600080fd5b82018360208201111561087057600080fd5b8035906020019184600183028401116401000000008311171561089257600080fd5b91908080601f016020809104026020016040519081016040528093929190818152602001838380828437600081840152601f19601f820116905080830192505050505050509192919290803590602001906401000000008111156108f557600080fd5b82018360208201111561090757600080fd5b8035906020019184600183028401116401000000008311171561092957600080fd5b91908080601f016020809104026020016040519081016040528093929190818152602001838380828437600081840152601f19601f820116905080830192505050505050509192919290803560ff16906020019092919080359060200190929190803573ffffffffffffffffffffffffffffffffffffffff169060200190929190803573ffffffffffffffffffffffffffffffffffffffff169060200190929190803573ffffffffffffffffffffffffffffffffffffffff169060200190929190803573ffffffffffffffffffffffffffffffffffffffff169060200190929190803573ffffffffffffffffffffffffffffffffffffffff169060200190929190803573ffffffffffffffffffffffffffffffffffffffff169060200190929190803573ffffffffffffffffffffffffffffffffffffffff16906020019092919050505061191c565b005b610ab660048036036020811015610a8a57600080fd5b81019080803573ffffffffffffffffffffffffffffffffffffffff169060200190929190505050611ec1565b604051808215151515815260200191505060405180910390f35b610ad8611edf565b6040518080602001828103825283818151815260200191508051906020019060200280838360005b83811015610b1b578082015181840152602081019050610b00565b505050509050019250505060405180910390f35b610b37611f6e565b005b610b41611f79565b6040518080602001828103825283818151815260200191508051906020019060200280838360005b83811015610b84578082015181840152602081019050610b69565b505050509050019250505060405180910390f35b610ba0611fd2565b6040518080602001828103825283818151815260200191508051906020019080838360005b83811015610be0578082015181840152602081019050610bc5565b50505050905090810190601f168015610c0d5780820380516001836020036101000a031916815260200191505b509250505060405180910390f35b610c2361200f565b6040518080602001828103825283818151815260200191508051906020019060200280838360005b83811015610c66578082015181840152602081019050610c4b565b505050509050019250505060405180910390f35b610c82612068565b604051808215151515815260200191505060405180910390f35b610ca4612080565b6040518082815260200191505060405180910390f35b610cc26120a1565b005b610d0660048036036020811015610cda57600080fd5b81019080803573ffffffffffffffffffffffffffffffffffffffff1690602001909291905050506120ac565b6040518082815260200191505060405180910390f35b610d246120f5565b005b610d6860048036036020811015610d3c57600080fd5b81019080803573ffffffffffffffffffffffffffffffffffffffff1690602001909291905050506121c9565b005b610d9660048036036020811015610d8057600080fd5b81019080803590602001909291905050506121e7565b604051808215151515815260200191505060405180910390f35b610dfc60048036036040811015610dc657600080fd5b81019080803573ffffffffffffffffffffffffffffffffffffffff1690602001909291908035906020019092919050505061224b565b005b610e06612259565b6040518082815260200191505060405180910390f35b610e5e60048036036020811015610e3257600080fd5b81019080803573ffffffffffffffffffffffffffffffffffffffff16906020019092919050505061227a565b005b610e68612298565b005b610e72612346565b604051808273ffffffffffffffffffffffffffffffffffffffff1673ffffffffffffffffffffffffffffffffffffffff16815260200191505060405180910390f35b610ebc612371565b604051808215151515815260200191505060405180910390f35b610f8c60048036036020811015610eec57600080fd5b8101908080359060200190640100000000811115610f0957600080fd5b820183602082011115610f1b57600080fd5b80359060200191846020830284011164010000000083111715610f3d57600080fd5b919080806020026020016040519081016040528093929190818152602001838360200280828437600081840152601f19601f8201169050808301925050505050505091929192905050506123ca565b6040518082815260200191505060405180910390f35b610faa612d30565b6040518080602001828103825283818151815260200191508051906020019080838360005b83811015610fea578082015181840152602081019050610fcf565b50505050905090810190601f1680156110175780820380516001836020036101000a031916815260200191505b509250505060405180910390f35b6110676004803603602081101561103b57600080fd5b81019080803573ffffffffffffffffffffffffffffffffffffffff169060200190929190505050612dd3565b005b611071612df1565b005b61107b612dfc565b6040518082815260200191505060405180910390f35b6110dd600480360360408110156110a757600080fd5b81019080803573ffffffffffffffffffffffffffffffffffffffff16906020019092919080359060200190929190505050612e1d565b604051808215151515815260200191505060405180910390f35b6111436004803603604081101561110d57600080fd5b81019080803573ffffffffffffffffffffffffffffffffffffffff16906020019092919080359060200190929190505050612e4c565b604051808215151515815260200191505060405180910390f35b61119f6004803603602081101561117357600080fd5b81019080803573ffffffffffffffffffffffffffffffffffffffff169060200190929190505050612e7b565b604051808215151515815260200191505060405180910390f35b611303600480360360408110156111cf57600080fd5b81019080803590602001906401000000008111156111ec57600080fd5b8201836020820111156111fe57600080fd5b8035906020019184602083028401116401000000008311171561122057600080fd5b919080806020026020016040519081016040528093929190818152602001838360200280828437600081840152601f19601f8201169050808301925050505050505091929192908035906020019064010000000081111561128057600080fd5b82018360208201111561129257600080fd5b803590602001918460208302840111640100000000831117156112b457600080fd5b919080806020026020016040519081016040528093929190818152602001838360200280828437600081840152601f19601f820116905080830192505050505050509192919290505050612e98565b6040518082815260200191505060405180910390f35b61135b6004803603602081101561132f57600080fd5b81019080803573ffffffffffffffffffffffffffffffffffffffff169060200190929190505050613088565b604051808215151515815260200191505060405180910390f35b6113a16004803603602081101561138b57600080fd5b81019080803590602001909291905050506130a6565b604051808215151515815260200191505060405180910390f35b6113fd600480360360208110156113d157600080fd5b81019080803573ffffffffffffffffffffffffffffffffffffffff16906020019092919050505061310a565b005b61140761321c565b005b6114556004803603604081101561141f57600080fd5b8101908080359060200190929190803573ffffffffffffffffffffffffffffffffffffffff169060200190929190505050613227565b005b6114b96004803603604081101561146d57600080fd5b81019080803573ffffffffffffffffffffffffffffffffffffffff169060200190929190803573ffffffffffffffffffffffffffffffffffffffff169060200190929190505050613345565b6040518082815260200191505060405180910390f35b611511600480360360208110156114e557600080fd5b81019080803573ffffffffffffffffffffffffffffffffffffffff1690602001909291905050506133cc565b005b60606101988054600181600116156101000203166002900480601f0160208091040260200160405190810160405280929190818152602001828054600181600116156101000203166002900480156115ac5780601f10611581576101008083540402835291602001916115ac565b820191906000526020600020905b81548152906001019060200180831161158f57829003601f168201915b5050505050905090565b600061013360009054906101000a900460ff16156115d357600080fd5b6115dd83836133e9565b905092915050565b6115ee33613088565b6115f757600080fd5b61160081613514565b50565b600060019054906101000a900460ff1680611622575061162161356f565b5b8061163957506000809054906101000a900460ff16155b61168e576040517f08c379a000000000000000000000000000000000000000000000000000000000815260040180806020018281038252602e815260200180615194602e913960400191505060405180910390fd5b60008060019054906101000a900460ff1615905080156116de576001600060016101000a81548160ff02191690831515021790555060016000806101000a81548160ff0219169083151502179055505b8361019890805190602001906116f59291906150ee565b5082610199908051906020019061170d9291906150ee565b508161019a60006101000a81548160ff021916908360ff160217905550801561174b5760008060016101000a81548160ff0219169083151502179055505b50505050565b6000603554905090565b600061013360009054906101000a900460ff161561177857600080fd5b611783848484613580565b90509392505050565b61179533613088565b61179e57600080fd5b6117a781613788565b50565b600061019a60009054906101000a900460ff16905090565b60006102666003815481106117d357fe5b9060005260206000200154905090565b600060cd54905090565b600061013360009054906101000a900460ff161561180a57600080fd5b61181483836137e3565b905092915050565b600061183382610265613a1890919063ffffffff16565b9050919050565b61184333611ec1565b61184c57600080fd5b61013360009054906101000a900460ff1661186657600080fd5b600061013360006101000a81548160ff0219169083151502179055507f5db9ee0a495bf2e6ff9c91a7834c1ba4fdd244a5e8aa4e537bd38aeae4b073aa33604051808273ffffffffffffffffffffffffffffffffffffffff1673ffffffffffffffffffffffffffffffffffffffff16815260200191505060405180910390a1565b60006118f233612e7b565b6118fb57600080fd5b6119058383613aaa565b6001905092915050565b6119193382613ae0565b50565b600060019054906101000a900460ff168061193b575061193a61356f565b5b8061195257506000809054906101000a900460ff16155b6119a7576040517f08c379a000000000000000000000000000000000000000000000000000000000815260040180806020018281038252602e815260200180615194602e913960400191505060405180910390fd5b60008060019054906101000a900460ff1615905080156119f7576001600060016101000a81548160ff02191690831515021790555060016000806101000a81548160ff0219169083151502179055505b60008911611a0457600080fd5b600073ffffffffffffffffffffffffffffffffffffffff168273ffffffffffffffffffffffffffffffffffffffff161415611a3e57600080fd5b611a4782613c34565b611a508261310a565b611a5a8983613227565b611a6382613df4565b611a6e8c8c8c611603565b61026660009080600181540180825580915050906001820390600052602060002001600090919290919091505550610266600090806001815401808255809150509060018203906000526020600020016000909192909190915055506102666000908060018154018082558091505090600182039060005260206000200160009091929091909150555061026660009080600181540180825580915050906001820390600052602060002001600090919290919091505550610266600090806001815401808255809150509060018203906000526020600020016000909192909190915055506102688890806001815401808255809150509060018203906000526020600020016000909192909190916101000a81548173ffffffffffffffffffffffffffffffffffffffff021916908373ffffffffffffffffffffffffffffffffffffffff160217905550506102688790806001815401808255809150509060018203906000526020600020016000909192909190916101000a81548173ffffffffffffffffffffffffffffffffffffffff021916908373ffffffffffffffffffffffffffffffffffffffff160217905550506102688690806001815401808255809150509060018203906000526020600020016000909192909190916101000a81548173ffffffffffffffffffffffffffffffffffffffff021916908373ffffffffffffffffffffffffffffffffffffffff160217905550506102688590806001815401808255809150509060018203906000526020600020016000909192909190916101000a81548173ffffffffffffffffffffffffffffffffffffffff021916908373ffffffffffffffffffffffffffffffffffffffff160217905550506102688490806001815401808255809150509060018203906000526020600020016000909192909190916101000a81548173ffffffffffffffffffffffffffffffffffffffff021916908373ffffffffffffffffffffffffffffffffffffffff160217905550506102688390806001815401808255809150509060018203906000526020600020016000909192909190916101000a81548173ffffffffffffffffffffffffffffffffffffffff021916908373ffffffffffffffffffffffffffffffffffffffff16021790555050611e28610268600081548110611dd057fe5b9060005260206000200160009054906101000a900473ffffffffffffffffffffffffffffffffffffffff16611e236103e8611e1560258e613efd90919063ffffffff16565b613f3790919063ffffffff16565b613aaa565b611e92610268600181548110611e3a57fe5b9060005260206000200160009054906101000a900473ffffffffffffffffffffffffffffffffffffffff16611e8d6103e8611e7f60648e613efd90919063ffffffff16565b613f3790919063ffffffff16565b613aaa565b8015611eb35760008060016101000a81548160ff0219169083151502179055505b505050505050505050505050565b6000611ed882610100613a1890919063ffffffff16565b9050919050565b6060610268805480602002602001604051908101604052809291908181526020018280548015611f6457602002820191906000526020600020905b8160009054906101000a900473ffffffffffffffffffffffffffffffffffffffff1673ffffffffffffffffffffffffffffffffffffffff1681526020019060010190808311611f1a575b5050505050905090565b611f7733613f5d565b565b6060610266805480602002602001604051908101604052809291908181526020018280548015611fc857602002820191906000526020600020905b815481526020019060010190808311611fb4575b5050505050905090565b60606040518060400160405280600281526020017f7630000000000000000000000000000000000000000000000000000000000000815250905090565b606061026780548060200260200160405190810160405280929190818152602001828054801561205e57602002820191906000526020600020905b81548152602001906001019080831161204a575b5050505050905090565b600061013360009054906101000a900460ff16905090565b600061026660048154811061209157fe5b9060005260206000200154905090565b6120aa33613fb8565b565b6000603360008373ffffffffffffffffffffffffffffffffffffffff1673ffffffffffffffffffffffffffffffffffffffff168152602001908152602001600020549050919050565b6120fd612371565b61210657600080fd5b600073ffffffffffffffffffffffffffffffffffffffff166101ff60009054906101000a900473ffffffffffffffffffffffffffffffffffffffff1673ffffffffffffffffffffffffffffffffffffffff167f8be0079c531659141344cd1fd0a4f28419497f9722a3daafe3b4186f6b6457e060405160405180910390a360006101ff60006101000a81548173ffffffffffffffffffffffffffffffffffffffff021916908373ffffffffffffffffffffffffffffffffffffffff160217905550565b6121d233613088565b6121db57600080fd5b6121e481614013565b50565b60006121f1612371565b6121fa57600080fd5b8161026660048154811061220a57fe5b906000526020600020015414612241578161026660048154811061222a57fe5b906000526020600020018190555060019050612246565b600090505b919050565b612255828261406e565b5050565b600061026660028154811061226a57fe5b9060005260206000200154905090565b61228333611ec1565b61228c57600080fd5b6122958161426c565b50565b6122a133611ec1565b6122aa57600080fd5b61013360009054906101000a900460ff16156122c557600080fd5b600161013360006101000a81548160ff0219169083151502179055507f62e78cea01bee320cd4e420270b5ea74000d11b0c9f74754ebdbfc544b05a25833604051808273ffffffffffffffffffffffffffffffffffffffff1673ffffffffffffffffffffffffffffffffffffffff16815260200191505060405180910390a1565b60006101ff60009054906101000a900473ffffffffffffffffffffffffffffffffffffffff16905090565b60006101ff60009054906101000a900473ffffffffffffffffffffffffffffffffffffffff1673ffffffffffffffffffffffffffffffffffffffff163373ffffffffffffffffffffffffffffffffffffffff1614905090565b60006123d53361181c565b6123de57600080fd5b60006123e86117aa565b60ff16600a0a905060048351146123fe57600080fd5b61026660038154811061240d57fe5b90600052602060002001548360008151811061242557fe5b6020026020010151101561243857600080fd5b60008360008151811061244757fe5b60200260200101511161245957600080fd5b8260008151811061246657fe5b60200260200101518360018151811061247b57fe5b60200260200101511161248d57600080fd5b60008360038151811061249c57fe5b602002602001015110156124af57600080fd5b6000836002815181106124be57fe5b602002602001015110156124d157600080fd5b826000815181106124de57fe5b60200260200101516102666003815481106124f557fe5b906000526020600020015414612547576102678360008151811061251557fe5b602002602001015190806001815401808255809150509060018203906000526020600020016000909192909190915055505b8260008151811061255457fe5b602002602001015161026660038154811061256b57fe5b90600052602060002001819055506125b98360018151811061258957fe5b60200260200101516102666002815481106125a057fe5b90600052602060002001546142c790919063ffffffff16565b6102666002815481106125c857fe5b90600052602060002001819055506000612625846000815181106125e857fe5b6020026020010151612617848760018151811061260157fe5b6020026020010151613efd90919063ffffffff16565b613f3790919063ffffffff16565b905060008460038151811061263657fe5b60200260200101511180156126645750600061026660048154811061265757fe5b9060005260206000200154115b1561278a576126ba61026660048154811061267b57fe5b90600052602060002001546126ac8461269e600286613efd90919063ffffffff16565b613efd90919063ffffffff16565b613f3790919063ffffffff16565b846003815181106126c757fe5b602002602001015110612789577f9a2433ecfa5af947a10f211de2ccb52406765978a37356bc0c0271e831c748618460008151811061270257fe5b60200260200101518560018151811061271757fe5b60200260200101518660028151811061272c57fe5b6020026020010151612748600286613efd90919063ffffffff16565b6040518085815260200184815260200183815260200182815260200194505050505060405180910390a1612786600382613efd90919063ffffffff16565b90505b5b6127b68161026660018154811061279d57fe5b90600052602060002001546142c790919063ffffffff16565b6102666001815481106127c557fe5b906000526020600020018190555060006127fc60466127ee600f85613efd90919063ffffffff16565b613f3790919063ffffffff16565b111561286c5761286b61026860028154811061281457fe5b9060005260206000200160009054906101000a900473ffffffffffffffffffffffffffffffffffffffff166128666046612858600f86613efd90919063ffffffff16565b613f3790919063ffffffff16565b613aaa565b5b60006128956064612887600885613efd90919063ffffffff16565b613f3790919063ffffffff16565b1115612905576129046102686004815481106128ad57fe5b9060005260206000200160009054906101000a900473ffffffffffffffffffffffffffffffffffffffff166128ff60646128f1600886613efd90919063ffffffff16565b613f3790919063ffffffff16565b613aaa565b5b6000612966836129588760028151811061291b57fe5b602002602001015161294a606461293c605c89613efd90919063ffffffff16565b613f3790919063ffffffff16565b613efd90919063ffffffff16565b613f3790919063ffffffff16565b905060006129a3826129956064612987605c88613efd90919063ffffffff16565b613f3790919063ffffffff16565b6142e690919063ffffffff16565b1115612a2557612a246102686005815481106129bb57fe5b9060005260206000200160009054906101000a900473ffffffffffffffffffffffffffffffffffffffff16612a1f83612a116064612a03605c89613efd90919063ffffffff16565b613f3790919063ffffffff16565b6142e690919063ffffffff16565b613aaa565b5b6000612a3b600a84613f3790919063ffffffff16565b9050612a97610266600081548110612a4f57fe5b9060005260206000200154612a896103e8612a7b600d612a6d6117e3565b613efd90919063ffffffff16565b613f3790919063ffffffff16565b6142e690919063ffffffff16565b8110612b4a57612af7610266600081548110612aaf57fe5b9060005260206000200154612ae96103e8612adb600d612acd6117e3565b613efd90919063ffffffff16565b613f3790919063ffffffff16565b6142e690919063ffffffff16565b9050612b286103e8612b1a600d612b0c6117e3565b613efd90919063ffffffff16565b613f3790919063ffffffff16565b610266600081548110612b3757fe5b9060005260206000200181905550612b94565b612b76610266600081548110612b5c57fe5b9060005260206000200154826142c790919063ffffffff16565b610266600081548110612b8557fe5b90600052602060002001819055505b6000612ba983836142c790919063ffffffff16565b1115612c0557612c04610268600381548110612bc157fe5b9060005260206000200160009054906101000a900473ffffffffffffffffffffffffffffffffffffffff16612bff84846142c790919063ffffffff16565b613aaa565b5b7f1411bc0e87b93dc4e24f1d8d44fb872a1e8450d4fdf054ac6acd3b03f8deafca86600081518110612c3357fe5b602002602001015187600181518110612c4857fe5b602002602001015188600281518110612c5d57fe5b6020026020010151612cb0612c8f6046612c81600f8b613efd90919063ffffffff16565b613f3790919063ffffffff16565b612ca2878a6142c790919063ffffffff16565b6142c790919063ffffffff16565b6040518085815260200184815260200183815260200182815260200194505050505060405180910390a1612d25612d046046612cf6600f87613efd90919063ffffffff16565b613f3790919063ffffffff16565b612d1783866142c790919063ffffffff16565b6142c790919063ffffffff16565b945050505050919050565b60606101998054600181600116156101000203166002900480601f016020809104026020016040519081016040528092919081815260200182805460018160011615610100020316600290048015612dc95780601f10612d9e57610100808354040283529160200191612dc9565b820191906000526020600020905b815481529060010190602001808311612dac57829003601f168201915b5050505050905090565b612ddc33612e7b565b612de557600080fd5b612dee81614306565b50565b612dfa33614360565b565b6000610266600181548110612e0d57fe5b9060005260206000200154905090565b600061013360009054906101000a900460ff1615612e3a57600080fd5b612e4483836143ba565b905092915050565b600061013360009054906101000a900460ff1615612e6957600080fd5b612e7383836145ef565b905092915050565b6000612e91826068613a1890919063ffffffff16565b9050919050565b60008151835114612ea857600080fd5b6000835111612eb657600080fd5b600080905060008090505b845181101561302f57600073ffffffffffffffffffffffffffffffffffffffff16858281518110612eee57fe5b602002602001015173ffffffffffffffffffffffffffffffffffffffff161415612f1d57600181019050612ec1565b6000612f4f868381518110612f2e57fe5b6020026020010151868481518110612f4257fe5b6020026020010151612e4c565b9050858281518110612f5d57fe5b602002602001015173ffffffffffffffffffffffffffffffffffffffff163373ffffffffffffffffffffffffffffffffffffffff167f4e9a8bb022db93f19ac819063cb2776258cfd2b24705bb971a9e4f1f61d40edf878581518110612fbf57fe5b60200260200101518460405180838152602001821515151581526020019250505060405180910390a3600015158115151415612ffb575061302f565b61302185838151811061300a57fe5b6020026020010151846142c790919063ffffffff16565b925060018201915050612ec1565b3373ffffffffffffffffffffffffffffffffffffffff167fed5764a1b8be605b492a928d158c22b5e031d1d054b31e8ff6d3211a4dacb730836040518082815260200191505060405180910390a2809250505092915050565b600061309f82610232613a1890919063ffffffff16565b9050919050565b60006130b0612371565b6130b957600080fd5b816102666003815481106130c957fe5b90600052602060002001541461310057816102666003815481106130e957fe5b906000526020600020018190555060019050613105565b600090505b919050565b600060019054906101000a900460ff1680613129575061312861356f565b5b8061314057506000809054906101000a900460ff16155b613195576040517f08c379a000000000000000000000000000000000000000000000000000000000815260040180806020018281038252602e815260200180615194602e913960400191505060405180910390fd5b60008060019054906101000a900460ff1615905080156131e5576001600060016101000a81548160ff02191690831515021790555060016000806101000a81548160ff0219169083151502179055505b6131ee82614606565b6131f782613514565b80156132185760008060016101000a81548160ff0219169083151502179055505b5050565b61322533613788565b565b600060019054906101000a900460ff1680613246575061324561356f565b5b8061325d57506000809054906101000a900460ff16155b6132b2576040517f08c379a000000000000000000000000000000000000000000000000000000000815260040180806020018281038252602e815260200180615194602e913960400191505060405180910390fd5b60008060019054906101000a900460ff161590508015613302576001600060016101000a81548160ff02191690831515021790555060016000806101000a81548160ff0219169083151502179055505b61330b8261471d565b6000831161331857600080fd5b8260cd8190555080156133405760008060016101000a81548160ff0219169083151502179055505b505050565b6000603460008473ffffffffffffffffffffffffffffffffffffffff1673ffffffffffffffffffffffffffffffffffffffff16815260200190815260200160002060008373ffffffffffffffffffffffffffffffffffffffff1673ffffffffffffffffffffffffffffffffffffffff16815260200190815260200160002054905092915050565b6133d4612371565b6133dd57600080fd5b6133e681614826565b50565b60008073ffffffffffffffffffffffffffffffffffffffff168373ffffffffffffffffffffffffffffffffffffffff16141561342457600080fd5b81603460003373ffffffffffffffffffffffffffffffffffffffff1673ffffffffffffffffffffffffffffffffffffffff16815260200190815260200160002060008573ffffffffffffffffffffffffffffffffffffffff1673ffffffffffffffffffffffffffffffffffffffff168152602001908152602001600020819055508273ffffffffffffffffffffffffffffffffffffffff163373ffffffffffffffffffffffffffffffffffffffff167f8c5be1e5ebec7d5bd14f71427d1e84f3dd0314c0f7b2291e5b200ac8c7c3b925846040518082815260200191505060405180910390a36001905092915050565b6135298161026561492290919063ffffffff16565b8073ffffffffffffffffffffffffffffffffffffffff167fee1504a83b6d4a361f4c1dc78ab59bfa30d6a3b6612c403e86bb01ef2984295f60405160405180910390a250565b600080303b90506000811491505090565b600061361182603460008773ffffffffffffffffffffffffffffffffffffffff1673ffffffffffffffffffffffffffffffffffffffff16815260200190815260200160002060003373ffffffffffffffffffffffffffffffffffffffff1673ffffffffffffffffffffffffffffffffffffffff168152602001908152602001600020546142e690919063ffffffff16565b603460008673ffffffffffffffffffffffffffffffffffffffff1673ffffffffffffffffffffffffffffffffffffffff16815260200190815260200160002060003373ffffffffffffffffffffffffffffffffffffffff1673ffffffffffffffffffffffffffffffffffffffff1681526020019081526020016000208190555061369c8484846149ce565b3373ffffffffffffffffffffffffffffffffffffffff168473ffffffffffffffffffffffffffffffffffffffff167f8c5be1e5ebec7d5bd14f71427d1e84f3dd0314c0f7b2291e5b200ac8c7c3b925603460008873ffffffffffffffffffffffffffffffffffffffff1673ffffffffffffffffffffffffffffffffffffffff16815260200190815260200160002060003373ffffffffffffffffffffffffffffffffffffffff1673ffffffffffffffffffffffffffffffffffffffff168152602001908152602001600020546040518082815260200191505060405180910390a3600190509392505050565b61379d81610265614b9c90919063ffffffff16565b8073ffffffffffffffffffffffffffffffffffffffff167f270d9b30cf5b0793bbfd54c9d5b94aeb49462b8148399000265144a8722da6b660405160405180910390a250565b60008073ffffffffffffffffffffffffffffffffffffffff168373ffffffffffffffffffffffffffffffffffffffff16141561381e57600080fd5b6138ad82603460003373ffffffffffffffffffffffffffffffffffffffff1673ffffffffffffffffffffffffffffffffffffffff16815260200190815260200160002060008673ffffffffffffffffffffffffffffffffffffffff1673ffffffffffffffffffffffffffffffffffffffff168152602001908152602001600020546142c790919063ffffffff16565b603460003373ffffffffffffffffffffffffffffffffffffffff1673ffffffffffffffffffffffffffffffffffffffff16815260200190815260200160002060008573ffffffffffffffffffffffffffffffffffffffff1673ffffffffffffffffffffffffffffffffffffffff168152602001908152602001600020819055508273ffffffffffffffffffffffffffffffffffffffff163373ffffffffffffffffffffffffffffffffffffffff167f8c5be1e5ebec7d5bd14f71427d1e84f3dd0314c0f7b2291e5b200ac8c7c3b925603460003373ffffffffffffffffffffffffffffffffffffffff1673ffffffffffffffffffffffffffffffffffffffff16815260200190815260200160002060008773ffffffffffffffffffffffffffffffffffffffff1673ffffffffffffffffffffffffffffffffffffffff168152602001908152602001600020546040518082815260200191505060405180910390a36001905092915050565b60008073ffffffffffffffffffffffffffffffffffffffff168273ffffffffffffffffffffffffffffffffffffffff161415613a5357600080fd5b8260000160008373ffffffffffffffffffffffffffffffffffffffff1673ffffffffffffffffffffffffffffffffffffffff16815260200190815260200160002060009054906101000a900460ff16905092915050565b60cd54613ac782613ab9611751565b6142c790919063ffffffff16565b1115613ad257600080fd5b613adc8282614c47565b5050565b600073ffffffffffffffffffffffffffffffffffffffff168273ffffffffffffffffffffffffffffffffffffffff161415613b1a57600080fd5b613b2f816035546142e690919063ffffffff16565b603581905550613b8781603360008573ffffffffffffffffffffffffffffffffffffffff1673ffffffffffffffffffffffffffffffffffffffff168152602001908152602001600020546142e690919063ffffffff16565b603360008473ffffffffffffffffffffffffffffffffffffffff1673ffffffffffffffffffffffffffffffffffffffff16815260200190815260200160002081905550600073ffffffffffffffffffffffffffffffffffffffff168273ffffffffffffffffffffffffffffffffffffffff167fddf252ad1be2c89b69c2b068fc378daa952ba7f163c4a11628f55a4df523b3ef836040518082815260200191505060405180910390a35050565b600060019054906101000a900460ff1680613c535750613c5261356f565b5b80613c6a57506000809054906101000a900460ff16155b613cbf576040517f08c379a000000000000000000000000000000000000000000000000000000000815260040180806020018281038252602e815260200180615194602e913960400191505060405180910390fd5b60008060019054906101000a900460ff161590508015613d0f576001600060016101000a81548160ff02191690831515021790555060016000806101000a81548160ff0219169083151502179055505b816101ff60006101000a81548173ffffffffffffffffffffffffffffffffffffffff021916908373ffffffffffffffffffffffffffffffffffffffff1602179055506101ff60009054906101000a900473ffffffffffffffffffffffffffffffffffffffff1673ffffffffffffffffffffffffffffffffffffffff16600073ffffffffffffffffffffffffffffffffffffffff167f8be0079c531659141344cd1fd0a4f28419497f9722a3daafe3b4186f6b6457e060405160405180910390a38015613df05760008060016101000a81548160ff0219169083151502179055505b5050565b600060019054906101000a900460ff1680613e135750613e1261356f565b5b80613e2a57506000809054906101000a900460ff16155b613e7f576040517f08c379a000000000000000000000000000000000000000000000000000000000815260040180806020018281038252602e815260200180615194602e913960400191505060405180910390fd5b60008060019054906101000a900460ff161590508015613ecf576001600060016101000a81548160ff02191690831515021790555060016000806101000a81548160ff0219169083151502179055505b613ed882614d9b565b8015613ef95760008060016101000a81548160ff0219169083151502179055505b5050565b600080831415613f105760009050613f31565b6000828402905082848281613f2157fe5b0414613f2c57600080fd5b809150505b92915050565b6000808211613f4557600080fd5b6000828481613f5057fe5b0490508091505092915050565b613f7281610232614b9c90919063ffffffff16565b8073ffffffffffffffffffffffffffffffffffffffff167f0a8eb35e5ca14b3d6f28e4abf2f128dbab231a58b56e89beb5d636115001e16560405160405180910390a250565b613fcd81610100614b9c90919063ffffffff16565b8073ffffffffffffffffffffffffffffffffffffffff167fcd265ebaf09df2871cc7bd4133404a235ba12eff2041bb89d9c714a2621c7c7e60405160405180910390a250565b6140288161023261492290919063ffffffff16565b8073ffffffffffffffffffffffffffffffffffffffff167f22380c05984257a1cb900161c713dd71d39e74820f1aea43bd3f1bdd2096129960405160405180910390a250565b6140fd81603460008573ffffffffffffffffffffffffffffffffffffffff1673ffffffffffffffffffffffffffffffffffffffff16815260200190815260200160002060003373ffffffffffffffffffffffffffffffffffffffff1673ffffffffffffffffffffffffffffffffffffffff168152602001908152602001600020546142e690919063ffffffff16565b603460008473ffffffffffffffffffffffffffffffffffffffff1673ffffffffffffffffffffffffffffffffffffffff16815260200190815260200160002060003373ffffffffffffffffffffffffffffffffffffffff1673ffffffffffffffffffffffffffffffffffffffff168152602001908152602001600020819055506141878282613ae0565b3373ffffffffffffffffffffffffffffffffffffffff168273ffffffffffffffffffffffffffffffffffffffff167f8c5be1e5ebec7d5bd14f71427d1e84f3dd0314c0f7b2291e5b200ac8c7c3b925603460008673ffffffffffffffffffffffffffffffffffffffff1673ffffffffffffffffffffffffffffffffffffffff16815260200190815260200160002060003373ffffffffffffffffffffffffffffffffffffffff1673ffffffffffffffffffffffffffffffffffffffff168152602001908152602001600020546040518082815260200191505060405180910390a35050565b6142818161010061492290919063ffffffff16565b8073ffffffffffffffffffffffffffffffffffffffff167f6719d08c1888103bea251a4ed56406bd0c3e69723c8a1686e017e7bbe159b6f860405160405180910390a250565b6000808284019050838110156142dc57600080fd5b8091505092915050565b6000828211156142f557600080fd5b600082840390508091505092915050565b61431a81606861492290919063ffffffff16565b8073ffffffffffffffffffffffffffffffffffffffff167f6ae172837ea30b801fbfcdd4108aa1d5bf8ff775444fd70256b44e6bf3dfc3f660405160405180910390a250565b614374816068614b9c90919063ffffffff16565b8073ffffffffffffffffffffffffffffffffffffffff167fe94479a9f7e1952cc78f2d6baab678adc1b772d936c6583def489e524cb6669260405160405180910390a250565b60008073ffffffffffffffffffffffffffffffffffffffff168373ffffffffffffffffffffffffffffffffffffffff1614156143f557600080fd5b61448482603460003373ffffffffffffffffffffffffffffffffffffffff1673ffffffffffffffffffffffffffffffffffffffff16815260200190815260200160002060008673ffffffffffffffffffffffffffffffffffffffff1673ffffffffffffffffffffffffffffffffffffffff168152602001908152602001600020546142e690919063ffffffff16565b603460003373ffffffffffffffffffffffffffffffffffffffff1673ffffffffffffffffffffffffffffffffffffffff16815260200190815260200160002060008573ffffffffffffffffffffffffffffffffffffffff1673ffffffffffffffffffffffffffffffffffffffff168152602001908152602001600020819055508273ffffffffffffffffffffffffffffffffffffffff163373ffffffffffffffffffffffffffffffffffffffff167f8c5be1e5ebec7d5bd14f71427d1e84f3dd0314c0f7b2291e5b200ac8c7c3b925603460003373ffffffffffffffffffffffffffffffffffffffff1673ffffffffffffffffffffffffffffffffffffffff16815260200190815260200160002060008773ffffffffffffffffffffffffffffffffffffffff1673ffffffffffffffffffffffffffffffffffffffff168152602001908152602001600020546040518082815260200191505060405180910390a36001905092915050565b60006145fc3384846149ce565b6001905092915050565b600060019054906101000a900460ff1680614625575061462461356f565b5b8061463c57506000809054906101000a900460ff16155b614691576040517f08c379a000000000000000000000000000000000000000000000000000000000815260040180806020018281038252602e815260200180615194602e913960400191505060405180910390fd5b60008060019054906101000a900460ff1615905080156146e1576001600060016101000a81548160ff02191690831515021790555060016000806101000a81548160ff0219169083151502179055505b6146ea82613088565b6146f8576146f782614013565b5b80156147195760008060016101000a81548160ff0219169083151502179055505b5050565b600060019054906101000a900460ff168061473c575061473b61356f565b5b8061475357506000809054906101000a900460ff16155b6147a8576040517f08c379a000000000000000000000000000000000000000000000000000000000815260040180806020018281038252602e815260200180615194602e913960400191505060405180910390fd5b60008060019054906101000a900460ff1615905080156147f8576001600060016101000a81548160ff02191690831515021790555060016000806101000a81548160ff0219169083151502179055505b61480182614ec0565b80156148225760008060016101000a81548160ff0219169083151502179055505b5050565b600073ffffffffffffffffffffffffffffffffffffffff168173ffffffffffffffffffffffffffffffffffffffff16141561486057600080fd5b8073ffffffffffffffffffffffffffffffffffffffff166101ff60009054906101000a900473ffffffffffffffffffffffffffffffffffffffff1673ffffffffffffffffffffffffffffffffffffffff167f8be0079c531659141344cd1fd0a4f28419497f9722a3daafe3b4186f6b6457e060405160405180910390a3806101ff60006101000a81548173ffffffffffffffffffffffffffffffffffffffff021916908373ffffffffffffffffffffffffffffffffffffffff16021790555050565b600073ffffffffffffffffffffffffffffffffffffffff168173ffffffffffffffffffffffffffffffffffffffff16141561495c57600080fd5b6149668282613a18565b1561497057600080fd5b60018260000160008373ffffffffffffffffffffffffffffffffffffffff1673ffffffffffffffffffffffffffffffffffffffff16815260200190815260200160002060006101000a81548160ff0219169083151502179055505050565b600073ffffffffffffffffffffffffffffffffffffffff168273ffffffffffffffffffffffffffffffffffffffff161415614a0857600080fd5b614a5a81603360008673ffffffffffffffffffffffffffffffffffffffff1673ffffffffffffffffffffffffffffffffffffffff168152602001908152602001600020546142e690919063ffffffff16565b603360008573ffffffffffffffffffffffffffffffffffffffff1673ffffffffffffffffffffffffffffffffffffffff16815260200190815260200160002081905550614aef81603360008573ffffffffffffffffffffffffffffffffffffffff1673ffffffffffffffffffffffffffffffffffffffff168152602001908152602001600020546142c790919063ffffffff16565b603360008473ffffffffffffffffffffffffffffffffffffffff1673ffffffffffffffffffffffffffffffffffffffff168152602001908152602001600020819055508173ffffffffffffffffffffffffffffffffffffffff168373ffffffffffffffffffffffffffffffffffffffff167fddf252ad1be2c89b69c2b068fc378daa952ba7f163c4a11628f55a4df523b3ef836040518082815260200191505060405180910390a3505050565b600073ffffffffffffffffffffffffffffffffffffffff168173ffffffffffffffffffffffffffffffffffffffff161415614bd657600080fd5b614be08282613a18565b614be957600080fd5b60008260000160008373ffffffffffffffffffffffffffffffffffffffff1673ffffffffffffffffffffffffffffffffffffffff16815260200190815260200160002060006101000a81548160ff0219169083151502179055505050565b600073ffffffffffffffffffffffffffffffffffffffff168273ffffffffffffffffffffffffffffffffffffffff161415614c8157600080fd5b614c96816035546142c790919063ffffffff16565b603581905550614cee81603360008573ffffffffffffffffffffffffffffffffffffffff1673ffffffffffffffffffffffffffffffffffffffff168152602001908152602001600020546142c790919063ffffffff16565b603360008473ffffffffffffffffffffffffffffffffffffffff1673ffffffffffffffffffffffffffffffffffffffff168152602001908152602001600020819055508173ffffffffffffffffffffffffffffffffffffffff16600073ffffffffffffffffffffffffffffffffffffffff167fddf252ad1be2c89b69c2b068fc378daa952ba7f163c4a11628f55a4df523b3ef836040518082815260200191505060405180910390a35050565b600060019054906101000a900460ff1680614dba5750614db961356f565b5b80614dd157506000809054906101000a900460ff16155b614e26576040517f08c379a000000000000000000000000000000000000000000000000000000000815260040180806020018281038252602e815260200180615194602e913960400191505060405180910390fd5b60008060019054906101000a900460ff161590508015614e76576001600060016101000a81548160ff02191690831515021790555060016000806101000a81548160ff0219169083151502179055505b614e7f82614fd7565b600061013360006101000a81548160ff0219169083151502179055508015614ebc5760008060016101000a81548160ff0219169083151502179055505b5050565b600060019054906101000a900460ff1680614edf5750614ede61356f565b5b80614ef657506000809054906101000a900460ff16155b614f4b576040517f08c379a000000000000000000000000000000000000000000000000000000000815260040180806020018281038252602e815260200180615194602e913960400191505060405180910390fd5b60008060019054906101000a900460ff161590508015614f9b576001600060016101000a81548160ff02191690831515021790555060016000806101000a81548160ff0219169083151502179055505b614fa482612e7b565b614fb257614fb182614306565b5b8015614fd35760008060016101000a81548160ff0219169083151502179055505b5050565b600060019054906101000a900460ff1680614ff65750614ff561356f565b5b8061500d57506000809054906101000a900460ff16155b615062576040517f08c379a000000000000000000000000000000000000000000000000000000000815260040180806020018281038252602e815260200180615194602e913960400191505060405180910390fd5b60008060019054906101000a900460ff1615905080156150b2576001600060016101000a81548160ff02191690831515021790555060016000806101000a81548160ff0219169083151502179055505b6150bb82611ec1565b6150c9576150c88261426c565b5b80156150ea5760008060016101000a81548160ff0219169083151502179055505b5050565b828054600181600116156101000203166002900490600052602060002090601f016020900481019282601f1061512f57805160ff191683800117855561515d565b8280016001018555821561515d579182015b8281111561515c578251825591602001919060010190615141565b5b50905061516a919061516e565b5090565b61519091905b8082111561518c576000816000905550600101615174565b5090565b9056fe436f6e747261637420696e7374616e63652068617320616c7265616479206265656e20696e697469616c697a6564a165627a7a7230582026c038141429869dcc6073b04615ecd94582466510324914d5034576aa014e760029",
  "source": "pragma solidity ^0.5.0;\n\nimport \"zos-lib/contracts/Initializable.sol\";\nimport \"openzeppelin-eth/contracts/token/ERC20/ERC20Detailed.sol\";\nimport \"openzeppelin-eth/contracts/token/ERC20/ERC20Pausable.sol\";\nimport \"openzeppelin-eth/contracts/token/ERC20/ERC20Capped.sol\";\nimport \"openzeppelin-eth/contracts/token/ERC20/ERC20Burnable.sol\";\nimport \"openzeppelin-eth/contracts/ownership/Ownable.sol\";\nimport \"./Whitelisted.sol\";\n\n\ncontract AxonToken is Initializable, ERC20Capped, ERC20Pausable, ERC20Detailed, ERC20Burnable, Ownable, Whitelisted {\n    // Run paras\n    // 0 total_vote_amount\n    // 1 total_invest_mined\n    // 2 total_revenue\n    // 3 current_difficulty\n    // 4 staking_mine_rate\n    uint256[] private setting;\n    uint256[] private difficulty_list;\n\n    // Token Distribution and Pool Address\n    // op_percentage               : 3.7%\n    // foundation_percentage       : 10%\n    // team_percentage             : 15%\n    // mining_percentage           : 70%\n    // vote_percentage             : 1.3%\n    // 0 op_address;\n    // 1 foundation_address;\n    // 2 team_address;\n    // 3 c_address;\n    // 4 pool_address;\n    // 5 b_address;\n    address[] private address_pool;\n\n    // Event\n    event LogRevenue(uint256 difficulty, uint256 revenue, uint256 alpha, uint256 total_mined);\n    event LogStaking(uint256 difficulty, uint256 revenue, uint256 alpha, uint256 staking_mined);\n    event LogTokenMultiSent(address indexed sender, uint256 total);\n    event LogSendToken(address indexed sender, address indexed receiver, uint256 amount, bool result);\n\n\n    function initialize(\n        string memory _name, string memory _symbol, uint8 _decimals, uint256 _cap, address _op_address, address _foundation_address, address _team_address, address _c_address, address _pool_address, address _b_address, address _owner_address\n    ) public initializer {\n        require(_cap > 0);\n        require(_owner_address != address(0));\n\n        Ownable.initialize(_owner_address);\n        Whitelisted.initialize(_owner_address);\n        ERC20Capped.initialize(_cap, _owner_address);\n        ERC20Pausable.initialize(_owner_address);\n        ERC20Detailed.initialize(_name, _symbol, _decimals);\n\n        setting.push(0);\n        setting.push(0);\n        setting.push(0);\n        setting.push(0);\n        setting.push(0);\n\n        address_pool.push(_op_address);\n        address_pool.push(_foundation_address);\n        address_pool.push(_team_address);\n        address_pool.push(_c_address);\n        address_pool.push(_pool_address);\n        address_pool.push(_b_address);\n\n        _mint(address_pool[0], _cap.mul(37).div(1000));  // 3.7%\n        _mint(address_pool[1], _cap.mul(100).div(1000)); // 10%\n    }\n\n    function version() public pure returns (string memory) {\n        return \"v0\";\n    }\n\n    function get_revenue() public view returns (uint256) {\n        return setting[2];\n    }\n\n    function get_invest_mined() public view returns (uint256) {\n        return setting[1];\n    }\n\n    function get_address_pool() public view returns (address[] memory) {\n        return address_pool;\n    }\n\n    function get_setting() public view returns (uint256[] memory) {\n        return setting;\n    }\n\n    function get_difficulty_list() public view returns (uint256[] memory) {\n        return difficulty_list;\n    }\n\n    function get_staking_mine_rate() public view returns (uint256) {\n        return setting[4];\n    }\n\n    function set_staking_mine_rate(uint256 _rate) public onlyOwner returns (bool) {\n        if (setting[4] != _rate) {\n            setting[4] = _rate;\n            return true;\n        }\n        return false;\n    }\n\n    function get_current_difficulty() public view returns (uint256) {\n        return setting[3];\n    }\n\n    function set_current_difficulty(uint256 _difficulty) public onlyOwner returns (bool) {\n        if (setting[3] != _difficulty) {\n            setting[3] = _difficulty;\n            return true;\n        }\n        return false;\n    }\n\n    /**\n     * @dev Mined by revenue and boost by staking\n     * paras[0] _difficulty Difficulty of the mining period (*10^decimals)\n     * paras[1] _revenue Revenue (*10^decimals)\n     * paras[2] _alpha Percentage of user's contribution, [0, 1] (*10^decimals)\n     * paras[3] _staking_cnt Staking count from users, [0, total_supply] (*10^decimals)\n     */\n    function mine(uint256[] memory paras) public onlyWhitelisted returns (uint256) {\n        uint256 precision = 10 ** uint256(decimals());\n        require(paras.length == 4);\n        require(paras[0] >= setting[3]);\n        require(paras[0] > 0);\n        require(paras[1] > paras[0]);\n        require(paras[3] >= 0);\n        require(paras[2] >= 0);\n\n        if (setting[3] != paras[0]) {\n            difficulty_list.push(paras[0]);\n        }\n        setting[3] = paras[0];\n        setting[2] = setting[2].add(paras[1]);\n\n        // Mined by investing\n        uint256 total_mined = paras[1].mul(precision).div(paras[0]);\n        // Boost by staking\n        if (paras[3] > 0 && setting[4] > 0) {\n            if (paras[3] >= total_mined.mul(2).mul(precision).div(setting[4])) {\n                emit LogStaking(paras[0], paras[1], paras[2], total_mined.mul(2));\n                total_mined = total_mined.mul(3);\n            }\n        }\n        setting[1] = setting[1].add(total_mined);\n\n        // Unlock 15%\n        if (total_mined.mul(15).div(70) > 0) {\n            _mint(address_pool[2], total_mined.mul(15).div(70));\n        }\n\n        // Mine 70%\n        // To pool\n        if (total_mined.mul(8).div(100) > 0) {\n            _mint(address_pool[4], total_mined.mul(8).div(100));\n        }\n        // To C\n        uint256 total_sku_user = total_mined.mul(92).div(100).mul(paras[2]).div(precision);\n        // To B\n        if (total_mined.mul(92).div(100).sub(total_sku_user) > 0) {\n            _mint(address_pool[5], total_mined.mul(92).div(100).sub(total_sku_user));\n        }\n\n        // Unlock 1.3%\n        uint256 total_vote = total_mined.div(10);\n        if (total_vote >= cap().mul(13).div(1000).sub(setting[0])) { // 1.3%\n            total_vote = cap().mul(13).div(1000).sub(setting[0]);\n            setting[0] = cap().mul(13).div(1000);\n        } else {\n            setting[0] = total_vote.add(setting[0]);\n        }\n        if (total_vote.add(total_sku_user) > 0) {\n            _mint(address_pool[3], total_vote.add(total_sku_user));\n        }\n\n        emit LogRevenue(paras[0], paras[1], paras[2], total_mined.add(total_vote).add(total_mined.mul(15).div(70)));\n        return total_mined.add(total_vote).add(total_mined.mul(15).div(70));\n    }\n\n    function multisend(address[] memory _recipients, uint256[] memory _values)\n    public returns (uint256) {\n        require(_recipients.length == _values.length);\n        require(_recipients.length > 0);\n        // require(_recipients.length <= 120);\n\n        uint256 total = 0;\n        uint256 i = 0;\n        while (i < _recipients.length) {\n            if (_recipients[i] == address(0)) {\n                i += 1;\n                continue;\n            }\n\n            bool result = transfer(_recipients[i], uint256(_values[i]));\n            emit LogSendToken(msg.sender, _recipients[i], _values[i], result);\n            if (result == false) { break; }\n            total = total.add(uint256(_values[i]));\n            i += 1;\n        }\n        emit LogTokenMultiSent(msg.sender, total);\n        return i;\n    }\n}",
  "sourcePath": "/Users/honeysun/Documents/GitHub/axon/contracts/AxonToken.sol",
  "compiler": {
    "name": "solc",
    "version": "0.5.8+commit.23d335f2.Emscripten.clang"
  },
  "schemaVersion": "3.0.11",
  "updatedAt": "2019-07-08T07:45:21.411Z",
  "devdoc": {
    "methods": {
      "allowance(address,address)": {
        "details": "Function to check the amount of tokens that an owner allowed to a spender.",
        "params": {
          "owner": "address The address which owns the funds.",
          "spender": "address The address which will spend the funds."
        },
        "return": "A uint256 specifying the amount of tokens still available for the spender."
      },
      "balanceOf(address)": {
        "details": "Gets the balance of the specified address.",
        "params": {
          "owner": "The address to query the balance of."
        },
        "return": "An uint256 representing the amount owned by the passed address."
      },
      "burn(uint256)": {
        "details": "Burns a specific amount of tokens.",
        "params": {
          "value": "The amount of token to be burned."
        }
      },
      "burnFrom(address,uint256)": {
        "details": "Burns a specific amount of tokens from the target address and decrements allowance",
        "params": {
          "from": "address The address which you want to send tokens from",
          "value": "uint256 The amount of token to be burned"
        }
      },
      "cap()": {
        "return": "the cap for the token minting."
      },
      "decimals()": {
        "return": "the number of decimals of the token."
      },
      "isOwner()": {
        "return": "true if `msg.sender` is the owner of the contract."
      },
      "mine(uint256[])": {
        "details": "Mined by revenue and boost by staking paras[0] _difficulty Difficulty of the mining period (*10^decimals) paras[1] _revenue Revenue (*10^decimals) paras[2] _alpha Percentage of user's contribution, [0, 1] (*10^decimals) paras[3] _staking_cnt Staking count from users, [0, total_supply] (*10^decimals)"
      },
      "mint(address,uint256)": {
        "details": "Function to mint tokens",
        "params": {
          "to": "The address that will receive the minted tokens.",
          "value": "The amount of tokens to mint."
        },
        "return": "A boolean that indicates if the operation was successful."
      },
      "name()": {
        "return": "the name of the token."
      },
      "owner()": {
        "return": "the address of the owner."
      },
      "pause()": {
        "details": "called by the owner to pause, triggers stopped state"
      },
      "paused()": {
        "return": "true if the contract is paused, false otherwise."
      },
      "renounceOwnership()": {
        "details": "Allows the current owner to relinquish control of the contract."
      },
      "symbol()": {
        "return": "the symbol of the token."
      },
      "totalSupply()": {
        "details": "Total number of tokens in existence"
      },
      "transferOwnership(address)": {
        "details": "Allows the current owner to transfer control of the contract to a newOwner.",
        "params": {
          "newOwner": "The address to transfer ownership to."
        }
      },
      "unpause()": {
        "details": "called by the owner to unpause, returns to normal state"
      }
    }
  },
  "userdoc": {
    "methods": {
      "renounceOwnership()": {
        "notice": "Renouncing to ownership will leave the contract without an owner. It will not be possible to call the functions with the `onlyOwner` modifier anymore."
      }
    }
  }
}